:020000020000FC
:100000004FEF41BB44BB47BB4ABB0E9470000E94FC
:100010006C000E9474000E947C000E9480000E947C
:1000200084000E94A4000E948C000E9488000E940C
:1000300090000E9498000E94A4000E9470000E94FC
:100040009C000E9478000E9474000E947C000E9424
:10005000A4000E9480000E9490000E94A4000E94C0
:100060008C000E94A0000E946C000E949800909A50
:100070000E94A40090980E9470000E947C000E9440
:10008000A4000E9474000E94A4000E9488000E94A4
:1000900090000E9498000E9494000E9484000E9498
:1000A000A4000E946C000E9478000E9474000E94CC
:1000B0007C000E94A4000E9490000E94A4000E9464
:1000C0008C000E9488000E94A0000E9494000E9460
:1000D0009C000E94980099CFC09AC19AC29A089534
:1000E000C39AC49AC59A0895D89AD99ADA9A089563
:1000F000DB9ADC9ADD9A0895A89AA99AAA9A08959B
:10010000AB9AAC9AAD9A0895909A919A929A089562
:10011000C098C198C2980895C398C498C598089586
:10012000D898D998DA980895DB98DC98DD980895E6
:10013000A898A998AA980895AB98AC98AD980895F6
:10014000909891989298089500E212E32AEF0000A7
:1001500000002A95E1F71A95C9F70A95B1F70895B5
:00000001FF
